:100000000000032081040000E5040000E904000072
:10001000E1040000E1040000E10400000000000031
:10002000000000000000000000000000ED040000DF
:10003000E104000000000000F1040000F5040000ED
:10004000F9040000FD0400000105000005050000A2
:10005000090500000D050000110500001505000050
:10006000190500001D050000210500002505000000
:10007000290500002D0500003105000035050000B0
:1000800039050000E1040000E1040000E104000083
:10009000E1040000E1040000E1040000E1040000CC
:1000A0003D05000041050000450500004905000030
:1000B0004D050000510500005505000059050000E0
:1000C0005D0500006105000065050000E104000019
:1000D000E1040000E1040000E1040000E10400008C
:1000E000E1040000E1040000E1040000E10400007C
:1000F000E1040000E1040000E1040000E10400006C
:10010000E1040000E1040000E1040000E10400005B
:10011000E1040000E1040000E1040000E10400004B
:10012000E1040000E1040000E1040000E10400003B
:10013000E1040000E1040000E1040000E10400002B
:10014000E104000069050000E1040000E104000092
:10015000E1040000E10400006D050000E10400007E
:10016000E1040000E104000071050000E10400006A
:10017000E1040000E1040000E1040000E1040000EB
:10018000E104000075050000E1040000E104000046
:10019000E1040000E1040000E1040000E1040000CB
:1001A000E1040000E1040000E10400007905000022
:1001B000E1040000E1040000E1040000E1040000AB
:1001C000E1040000E1040000E1040000E10400009B
:1001D0007D050000E1040000E1040000E1040000EE
:1001E000E1040000E1040000E1040000E10400007B
:1001F000E1040000E1040000E1040000E10400006B
:10020000E1040000E1040000E1040000E10400005A
:10021000E1040000E1040000E1040000E10400004A
:10022000E1040000E1040000E1040000E10400003A
:10023000E1040000E1040000E1040000E10400002A
:10024000E1040000E1040000E1040000E10400001A
:10025000E1040000E1040000E1040000E10400000A
:10026000E1040000E1040000E1040000E1040000FA
:10027000E1040000E1040000E1040000E1040000EA
:10028000E1040000E1040000E1040000E1040000DA
:10029000E1040000E1040000E1040000E1040000CA
:1002A000E1040000E1040000E1040000E1040000BA
:1002B000E1040000E1040000E1040000E1040000AA
:1002C000E1040000E1040000E1040000E10400009A
:1002D000E1040000E1040000E1040000E10400008A
:1002E000E1040000E1040000E1040000E10400007A
:1002F000E1040000E1040000E1040000E10400006A
:10030000E1040000E1040000E1040000E104000059
:10031000E1040000E1040000E1040000E104000049
:10032000E1040000E1040000E1040000E104000039
:10033000E1040000E1040000E1040000E104000029
:10034000E1040000E1040000E1040000E104000019
:10035000E1040000E1040000E1040000E104000009
:10036000E1040000E1040000E1040000E1040000F9
:10037000E1040000E1040000E1040000E1040000E9
:10038000E1040000E1040000E1040000E1040000D9
:10039000E1040000E1040000E1040000E1040000C9
:1003A000E1040000E1040000E1040000E1040000B9
:1003B000E1040000E1040000E1040000E1040000A9
:10040000FFFFFFFFFFFFFFFFFFFFFFFFFE3DFFFFBF
:10041000A3F5803A704700BF154B002B08BF114B66
:100420009D46FFF7F5FF00218B460F461148124A03
:10043000121A01F076FF0C4B002B00D098470B4BA3
:10044000002B00D098470020002104000D000B482D
:1004500001F082FD01F0C4FF2000290000F096F9B0
:1004600001F080FD00000800000000000000000016
:10047000000003206400FF1FF404FF1F2924000074
:1004800072B60E480E4901600A6882F308880D486A
:1004900080470D490D4A0E4B9A42BEBF51F8040BDE
:1004A00042F8040BF8E70B490B4A00209142BCBF0D
:1004B00041F8040BFAE762B60848804708ED00E00F
:1004C00000000000E51E0000F83500000000FF1FDE
:1004D0006400FF1F6400FF1FF404FF1F19040000E5
:1004E000FFF7FEBF2648004726480047264800473A
:1004F0002648004726480047264800472648004728
:100500002648004726480047264800472648004717
:100510002648004726480047264800472648004707
:1005200026480047264800472648004726480047F7
:1005300026480047264800472648004726480047E7
:1005400026480047264800472648004726480047D7
:1005500026480047264800472648004726480047C7
:1005600026480047264800472648004726480047B7
:1005700026480047264800472648004726480047A7
:10058000E5040000E9040000ED040000F1040000AF
:10059000F5040000F50D00002D0E0000650E0000B2
:1005A0009D0E0000D50E00000D0F0000450F00004D
:1005B0007D0F0000B50F0000ED0F000025100000BA
:1005C0005D10000095100000CD1000000511000026
:1005D0003D110000E104000021120000351200006E
:1005E000610C0000950C0000F9180000351900009E
:1005F000151600003516000055160000751600008F
:1006000095160000C90C0000A91100004912000055
:10061000711900005D120000E104000000000000FC
:1006200001F0FF01102A2BDB10F0070F08D010F8A3
:10063000013B013A8B422DD010F0070F42B3F6D1A7
:10064000F0B441EA012141EA014122F007047FF0C0
:1006500000070023F0E80256083C85EA010586EA17
:10066000010685FA47F5A3FA87F586FA47F6A5FA53
:1006700087F68EB9EED1F0BC01F0FF0102F007025F
:1006800032B110F8013B013A83EA010313B1F8D10A
:100690000020704701387047002D06BF35460338EB
:1006A000073815F0010F07D1013015F4807F02BF24
:1006B000013015F4C03F0130F0BC0138704700BF75
:1006C00010B5054C237833B9044B13B10448AFF38C
:1006D00000800123237010BD6400FF1F0000000094
:1006E000D035000008B5034B1BB103490348AFF3F5
:1006F000008008BD000000006800FF1FD03500002A
:1007000010B5044601F002FC01F07CFB204601F02C
:1007100001FC01F07FFB204601F0FAFB224610218C
:10072000722000F0C1F8002010BDF8B511F00404EB
:100730000E4615461F460AD019784C1CE4B2944266
:1007400001D90420F8BD601A184401F0E5FBB20796
:1007500008D51034E4B2A542F3D3A4F11000384414
:1007600001F0D2FBF3070BD51034E4B2A542E8D375
:10077000A4F1100010213844FFF7C2FF0028E1D196
:10078000641B18BF0124A000DCE700001FB5114B5B
:100790006A4603F11006154618685968144603C4E2
:1007A0000833B3422246F7D101F0B8FA01F0DEFA7D
:1007B00001F00AFB01F0A6FB284601F0A5FB00F0C2
:1007C00061F8054A1021012000F03EF800F0CAF857
:1007D000FCE700BF4C3000002B07000010B50246BC
:1007E000014400208A4200D110BD12F8013B0824C8
:1007F000584043B2002BBABF5B0083F04D03430067
:10080000013CD8B2F5D1EDE730B500220446012312
:100810008B4201D3002030BD14F8015F15B99D1A39
:1008200085541A460133DBB2F2E730B5047800256F
:10083000024605702046884200D204B930BD145CDF
:1008400015540319D8B2F6E7F8B50C4D2B681F2BD9
:1008500004DD612001F0F4FA0120F8BDF82901D986
:100860006220F7E7064F0C245C433E1901333855EC
:10087000C6E901122B600020EFE700BF0002FF1F56
:100880008000FF1F08B5064A00217620FFF7DCFF35
:10089000BDE80840034A00217720FFF7D5BF00BF1D
:1008A000090900002509000070B50C46C0B022B34C
:1008B00000238DF802108DF800308DF801000DF145
:1008C00002019C421BDCA11CC9B20DF10100FFF723
:1008D00085FF0DEB0403261D611DD8700025C9B2EC
:1008E00068460DF80650FFF78FFF6C4614F8010BB1
:1008F000013501F0A5FAAE42F8DA40B070BDD05C27
:1009000001F8010F0133DCE707B503230DF10702FE
:10091000012172208DF80730FFF7C6FF002003B0D9
:100920005DF804FB30B50D4B0D48197889B00022F5
:100930000C24D3B28B4202F1010206DB6A4672201C
:10094000FFF7B2FF002009B030BD03F1200563437B
:100950006D44C35C05F8203CEBE700BF0002FF1FBD
:100960008000FF1F2DE9F043C1B0002401AD8DF8D8
:100970000340A84601F056FA05F8010B58B90520C6
:100980008DF803000DF1030201216520FFF78CFFB4
:1009900041B0BDE8F0830134042CEBD12146404640
:1009A000FFF743FF2D4B9DF805101A6806462C48AB
:1009B00000230C25DFB2974202DB08D10120DFE7DC
:1009C00005FB07FC013310F80CC08C45F2D19DF8F3
:1009D00007300533B34202DA0420D1E72C4601F098
:1009E00021FA08F804000028C9D09DF80730651CDA
:1009F0000433AB42F2DA01F015FA05F580736B446B
:100A000003F8FC0C0028E7D1C6F1010353FA85F185
:100A1000C9B25FFA85F908EB0600FFF706FFA9F1F6
:100A20000201C9B20DF10500FFF7D8FE04F580738D
:100A30000DEB030414F8FC3C83420DD1084B9DF8E8
:100A400006109DF805000C2202FB07339DF80720D5
:100A50009C6802ABA04793E7022091E70002FF1FCA
:100A60008000FF1F7047704770477047704770479E
:100A70007047704747F2305300BF013BFCD17047CD
:100A800038B5124C1248134D4FF08A73636400F06E
:100A90005FF8114B00201D6000F042F80F4B002260
:100AA0000121032000F08AF80D4800F01DF80D4BDD
:100AB0001D60636823F0406343F000636360636814
:100AC00043F4805363600023A36638BD0080044074
:100AD00074340000107570000402FF1F750A0000D6
:100AE0007C3400000000FF1F0C49436801F5805270
:100AF00070B5536443788478556806785B0003F0DA
:100B00000E0304F00104234366F311455560536658
:100B10000B68C27862F393430B6070BD00700440B1
:100B200010B50A490A7B0B7B00F0030403F0FC03B9
:100B300023430B7302F00303834204D040F2DC53DF
:100B400000BF013BFCD1002010BD00BF00400640AB
:100B5000016849F69703994230B526D9144B99425A
:100B60008CBF02210121134A0479137803F0F003AA
:100B7000234313701478C379857904F05F042C4300
:100B80009B011470DBB20C4C93706378407903F0D6
:100B9000C303034343EA0113637028B113781A06B1
:100BA00002D5A3799B07FCD530BD0021DBE700BF50
:100BB00000127A00005006400040064038B51F4A37
:100BC000517901F0BF01517191798906FCD45178B6
:100BD00001F0FD015170D478917911F010011DBF21
:100BE000D17881F02001D1700A4614490D784FEA7E
:100BF000C00005F0030500F0380040EA050040F0B1
:100C000080000870087B18BF01228507E4B205D177
:100C10004878400702D588798507FCD50749887947
:100C2000C006FCD402B1CC708A7902F00C02082A0A
:100C3000FAD103B19847002038BD00BF00400640FC
:100C400008B50368002BB4BF034B044B1B689847DF
:100C5000BFF34F8F08BD00BF0C02FF1F0802FF1F2C
:100C600008B5074B196831B9064B074A07484FF4D6
:100C7000DC6101F053F9BDE808400548FFF7E0BF2B
:100C80001002FF1FB0300000B034000080300000C0
:100C900000C0024008B5074B596831B9064B074AF6
:100CA00007484FF4DD6101F039F9BDE80840054817
:100CB000FFF7C6BF1002FF1FC03000009A340000CB
:100CC0008030000000D0024008B5074B996831B968
:100CD000064B074A07484FF4DE6101F01FF9BDE8F3
:100CE00008400548FFF7ACBF1002FF1FD0300000DE
:100CF000843400008030000000C00A401F2910B575
:100D000006D90D4B0D4A0E4840F2C11101F006F90B
:100D100000EB411241F21C03D45AC36A426ACB4031
:100D2000CA405B00920002F0040203F00203134386
:100D3000C4F3C010184310BD33310000D534000097
:100D40000331000070B5044630B9274B274A2848C4
:100D50004FF4557101F0E2F88268017CD177C368E5
:100D6000056833B92DB141680122AC46BDE8704039
:100D7000604702EB411241F21C0041F21801515848
:100D8000125ACB1A12F080024FEA531117D0C9B28F
:100D9000637C5BB299421BD1E37C207D98421FD1DA
:100DA000E37C5BB249B26174E17CC91A49B2E17477
:100DB000C5B1003A616818BF01222046D5E71F2B54
:100DC00001D90139E3E7217D013901F0FF01DFE7B6
:100DD000637C5BB2CB1AE5D5207D43FA80F3E1E773
:100DE0000023DFE770BD00BF86310000C63400007D
:100DF0000331000008B50B480021FFF77FFF4207D1
:100E000003D5094B1868FFF79DFF06481021FFF72F
:100E100075FF430703D5044B186CFFF793FFBFF32F
:100E20004F8F08BD008000401C02FF1F08B50B4813
:100E30000121FFF763FF420703D5094B5868FFF70D
:100E400081FF06481121FFF759FF430703D5044BE3
:100E5000586CFFF777FFBFF34F8F08BD008000404D
:100E60001C02FF1F08B50B480221FFF747FF42078E
:100E700003D5094B9868FFF765FF06481221FFF775
:100E80003DFF430703D5044B986CFFF75BFFBFF3AF
:100E90004F8F08BD008000401C02FF1F08B50B48A3
:100EA0000321FFF72BFF420703D5094BD868FFF753
:100EB00049FF06481321FFF721FF430703D5044BE1
:100EC000D86CFFF73FFFBFF34F8F08BD0080004095
:100ED0001C02FF1F08B50B480421FFF70FFF420754
:100EE00003D5094B1869FFF72DFF06481421FFF7BA
:100EF00005FF430703D5044B186DFFF723FFBFF32E
:100F00004F8F08BD008000401C02FF1F08B50B4832
:100F10000521FFF7F3FE420703D5094B5869FFF798
:100F200011FF06481521FFF7E9FE430703D5044BDF
:100F3000586DFFF707FFBFF34F8F08BD00800040DB
:100F40001C02FF1F08B50B480621FFF7D7FE42071A
:100F500003D5094B9869FFF7F5FE06481621FFF700
:100F6000CDFE430703D5044B986DFFF7EBFEBFF3AF
:100F70004F8F08BD008000401C02FF1F08B50B48C2
:100F80000721FFF7BBFE420703D5094BD869FFF7DE
:100F9000D9FE06481721FFF7B1FE430703D5044BDE
:100FA000D86DFFF7CFFEBFF34F8F08BD0080004024
:100FB0001C02FF1F08B50B480821FFF79FFE4207E0
:100FC00003D5094B186AFFF7BDFE06481821FFF745
:100FD00095FE430703D5044B186EFFF7B3FEBFF32E
:100FE0004F8F08BD008000401C02FF1F08B50B4852
:100FF0000921FFF783FE420703D5094B586AFFF723
:10100000A1FE06481921FFF779FE430703D5044BDB
:10101000586EFFF797FEBFF34F8F08BD008000406A
:101020001C02FF1F08B50B480A21FFF767FE4207A5
:1010300003D5094B986AFFF785FE06481A21FFF78A
:101040005DFE430703D5044B986EFFF77BFEBFF3AD
:101050004F8F08BD008000401C02FF1F08B50B48E1
:101060000B21FFF74BFE420703D5094BD86AFFF768
:1010700069FE06481B21FFF741FE430703D5044BD9
:10108000D86EFFF75FFEBFF34F8F08BD00800040B2
:101090001C02FF1F08B50B480C21FFF72FFE42076B
:1010A00003D5094B186BFFF74DFE06481C21FFF7CF
:1010B00025FE430703D5044B186FFFF743FEBFF32C
:1010C0004F8F08BD008000401C02FF1F08B50B4871
:1010D0000D21FFF713FE420703D5094B586BFFF7AD
:1010E00031FE06481D21FFF709FE430703D5044BD7
:1010F000586FFFF727FEBFF34F8F08BD00800040F9
:101100001C02FF1F08B50B480E21FFF7F7FD420731
:1011100003D5094B986BFFF715FE06481E21FFF714
:10112000EDFD430703D5044B986FFFF70BFEBFF3AC
:101130004F8F08BD008000401C02FF1F08B50B4800
:101140000F21FFF7DBFD420703D5094BD86BFFF7F3
:10115000F9FD06481F21FFF7D1FD430703D5044BD6
:10116000D86FFFF7EFFDBFF34F8F08BD0080004041
:101170001C02FF1F10B5094C216821B1084B094A18
:101180001B6810689847616821B1054B054A5B6888
:1011900050689847BFF34F8F10BD00BFAC02FF1FD0
:1011A0009C02FF1FA402FF1FFFF7E4BF08B52AB986
:1011B0000B4B0C4A0C48652100F0B0FE012303FAEA
:1011C00001F1137823B9436923EA0103436108BDA0
:1011D00053781BB9816043690B43F7E74160FAE735
:1011E000E8310000F0340000B831000010B5C478D8
:1011F000E40603460A4602D48478A40607D50649C5
:1012000018460C681146A047BFF34F8F10BD034B23
:101210001B689847F8E700BFB802FF1FB402FF1F22
:10122000024B03481968FFF7E1BF00BFBC02FF1F74
:1012300000600640024B03485968FFF7D7BF00BF64
:10124000BC02FF1F00700640024B03489968FFF77D
:10125000CDBF00BFBC02FF1F00600E40024B034821
:10126000D968FFF7C3BF00BFBC02FF1F00700E406C
:1012700008B5114B984215D003F58053984213D00E
:1012800003F58053984211D003F5805398420FD054
:1012900003F5704398420DD0084B094A09488E2146
:1012A00000F03CFE002008BD0120FCE70220FAE728
:1012B0000320F8E70420F6E700400C40213200004C
:1012C0004A350000EF3100002DE9F74F0446009247
:1012D0000D4629B9754B764AE421764800F01EFE8A
:1012E0000B681BB9744B724AE521F6E773498842D3
:1012F0001AD001F58051884216D001F580518842FC
:1013000014D001F58051884210D001F57041884217
:101310000CBF01214FF0FF3195F80880884507DDAB
:10132000674B634AE721D8E70821F5E70121F3E796
:1013300095F80990894500F3AF8000274FEA830AAA
:101340009E460420BB46009AB2FBFAF6B6B2012EC6
:1013500038BF012600FB06F1B2FBF1F1721CC91A7D
:1013600006FB000C0192009AB2FBFCFCA3EB0C0CF8
:101370008C453CBF6146BDF80460714598BF074687
:1013800000F101008CBF5E468E4621289A4440F051
:1013900087806422B3FBF2F303EB43037345C0F091
:1013A00081802046FFF764FF464B53F820100B0C5A
:1013B00003F1804303F58E2389B2186801228A4025
:1013C00002431A60A36823F44023A36023683A1FF2
:1013D000032A98BF43F40033013F67F31C6366F3AD
:1013E0000C032360236823F000532360A368EA7B87
:1013F000297923F4E263120223F007030B4302F47A
:10140000E0621A43AB7B9B0003F00403134309B172
:1014100043F01003A3602368EA7962F34D3323603D
:1014200048EA0943E361A36943F08803A361A36920
:1014300043F44043A3616B7B2A7B61691B0152012A
:1014400003F0100302F0200213430B436361AB7AF5
:101450001BB1636943F008036361EB7A1BB16369F5
:1014600043F001036361A979174B184A002918BF9B
:101470001A466368134363606A7C2B7CA1685B42F5
:10148000524203F4002302F4802213430B43A3606F
:10149000002003B0BDE8F08F0D4B054AE8211CE7A2
:1014A000B34650E740F22150F3E700BFE8310000B7
:1014B0003E350000EF3100004632000000400C4095
:1014C0005B3200006035000000C01FE000C01FC09C
:1014D0009A32000008B530B9074B084A08484FF463
:1014E000F17100F01BFD00234FF4E132C0E900234D
:1014F000C0E90233038208BDE83100002635000050
:10150000EF310000426883691B0C03F0C30343EA18
:1015100002007047836961F3114310B58361446829
:101520000B4664F31E03094C23F080430C4023F464
:10153000FE13234301F4404423434360FFF7E2FFDB
:10154000084240F21A5008BF002010BD00001F40A2
:1015500008B519B10A44914207D108BD064B074AA4
:10156000074840F2A92100F0D9FC43681B02FCD5D2
:1015700011F8013BC360EEE79D3300001135000018
:10158000EF31000038B5044621B18D18A94233D19E
:10159000002012E01C4B1D4A1D484FF42E7100F034
:1015A000BDFC2046FFF7AEFF020307D54FF4002134
:1015B0002046FFF7AFFF40F21D5038BD430307D56B
:1015C0004FF480212046FFF7A5FF40F21E50F4E7BC
:1015D000820307D54FF400312046FFF79BFF40F20E
:1015E0001F50EAE7C30307D54FF480312046FFF7C9
:1015F00091FF4FF4A460E0E7E369B3F1807FD0D3BB
:10160000E36801F8013BC1E79D330000FD340000B1
:10161000EF31000008B5044A044B11681B68044808
:101620009847BFF34F8F08BDD002FF1FCC02FF1FAA
:1016300000400C4008B5044A044B51681B6804483C
:101640009847BFF34F8F08BDD002FF1FCC02FF1F8A
:1016500000500C4008B5044A044B91681B680448CC
:101660009847BFF34F8F08BDD002FF1FCC02FF1F6A
:1016700000600C4008B5044A044BD1681B6804485C
:101680009847BFF34F8F08BDD002FF1FCC02FF1F4A
:1016900000700C4008B5044A044B11691B680448EB
:1016A0009847BFF34F8F08BDD002FF1FCC02FF1F2A
:1016B00000600D40F0B5114C0464446B44F47304B5
:1016C000446395080024AC420FDB82604FF4803203
:1016D00082649DF81C201343BDF8142013439DF829
:1016E0001820134303600020F0BD04F1800651F878
:1016F000247040F826700134E5E700BF6DF000C0AB
:10170000A0F11003102B9DBF0248D84000F001004B
:1017100000207047010101000246906C00F4803106
:1017200010F4801007D10029F7D0042313644FF47C
:10173000803393647047012010637047013902447D
:10174000904200D1704711F8013F00F8013BF7E7E4
:101750001FB5002402949DF81C400194BDF8184068
:101760000094FFF7A7FF04B010BD2DE9F74FD2F8A2
:1017700000801F6806460C4693469A460D4655EA79
:10178000040306D1CBF80080CAF8007003B0BDE8AE
:10179000F08FD6F8C09719F4FE0F07D034B1032CA0
:1017A000D6F8F0370FD947F8043B043C19F4004948
:1017B000E5D1002DE3D0032D0ED958F8043BC6F82F
:1017C000E037043DDBE72246384601A90193274470
:1017D000FFF7B4FF0024E9E72A46414601A8CDF807
:1017E0000490FFF7ABFF019BC6F8E037A8444D46D5
:1017F000C5E737B50546019114460093E9B1E3B159
:10180000102A2A6117D912F00F0313BFE11AA2F1AF
:10181000100110241C466B4601AA2846FFF7A5FFBD
:1018200028466B4601AA2146FFF79FFF2846FFF78F
:1018300073FF03B030BD0021EDE70420F9E72DE987
:10184000F041D0F8008005460E4614461F460CB9FC
:1018500000200AE0B4F57F6F3B4608D822463146A7
:101860002846FFF7C6FF0028F2D0BDE8F0814FF40C
:101870007F6231462846FFF7BCFF0028F5D106F508
:101880007F66A4F57F6407F57F67C5F80080DEE713
:10189000024AD36A43F40033D362704700800440A5
:1018A0008166816670470000F7B5044609980E46C8
:1018B00017461D46FFF724FFD0B10F2D18D9290771
:1018C00016D14FF400730122CDE90032099A08992C
:1018D0004FF48013D2B22046FFF73AFF3B462A4628
:1018E00031462046FFF7ABFF024B236403B0F0BD47
:1018F0000420FBE76DF000C008B5084B196831B94A
:10190000074B084A084840F20B5100F007FB074B11
:1019100007481B689847BFF34F8F08BDEC02FF1FB5
:101920002A3300008D350000FB320000E802FF1F63
:1019300000F0024008B5084B596831B9074B084A16
:10194000084840F2165100F0E9FA074B07481B68B7
:101950009847BFF34F8F08BDEC02FF1F3C330000D8
:1019600074350000FB320000E402FF1F00F002406B
:1019700008B5084B196831B9074B084A084840F2C6
:10198000945100F0CBFA074B07481B689847BFF308
:101990004F8F08BDF802FF1FA2330000A6350000DC
:1019A00055330000F402FF1F00100B4008B5054B33
:1019B000984206D0044B054A05484FF49B6100F05D
:1019C000ADFA08BD00000A40B2330000BC3500008B
:1019D000D533000090B31A4B1A494FF08072C0E91A
:1019E00000234FF4AD63C0E9021340F25C4C40F2B7
:1019F0009513C0E904C3E322DC23C0E90623622176
:101A00007D23C0E908134FF0250C4B23C0E90AC31E
:101A10002F220B23C0E90C320123C0E90E320364EC
:101A200046F6201245F67D73C0E911234FF4C841F4
:101A30004FF4C863C0E913130020704704207047B7
:101A4000800CC4093F00012238B50D46044608B990
:101A5000042038BD0029FBD0FFF7A8FF904A136B84
:101A600043F001031363236823F4883343F4803382
:101A70002360236823F4825343F040032360AA7A4F
:101A8000531E0E2BE4D8636823F4702343EA024309
:101A9000D5E90312914263600FD98A1A41EA020321
:101AA000B3F5803FD4D2236A6FF30F030B43236255
:101AB000236A9BB243EA02432362D5E905129142AD
:101AC00010D98A1A41EA0203B3F5004FC0D2636A03
:101AD0006FF30E030B436362636A6FF31E4343EAC3
:101AE00002436362D5E90712914210D98A1A41EA8A
:101AF0000203B3F5804FABD2A36A6FF30D030B4320
:101B0000A362A36A6FF31D4343EA0243A362D5E9CC
:101B10000912914210D98A1A41EA0203B3F5005F13
:101B200096D2E36A6FF30C030B43E362E36A6FF34D
:101B30001C4343EA0243E362D5E90B12914210D9F8
:101B40008A1A41EA0203B3F5805F81D2236B6FF3F7
:101B50000B030B432363236B6FF31B4343EA0243E3
:101B60002363D5E90D12914211D98A1A41EA020381
:101B7000B3F5006FBFF46CAF636B6FF30A030B43F5
:101B80006363636B6FF31A4343EA02436363D5E90C
:101B90000F12914211D98A1A41EA0203B3F5006F7C
:101BA000BFF456AFA36B6FF30A030B43A363A36B9E
:101BB0006FF31A4343EA0243A363D5E9111291423A
:101BC00012D98A1AB2F5803FBFF442AFB1F1807FDB
:101BD000BFF43EAFE36803F07F430B43E360A368C9
:101BE0006FF30F031343A360D5E9131291420ED98B
:101BF00041EA0203B3F5800FBFF42AAFE369294835
:101C000003400B43E361A36903401343A3616B7873
:101C10002268DB0122F48452DBB213432360226882
:101C2000AB7822F480529B0022F00C0203F00C03EC
:101C3000134323602268EB7822F4805222F00302DF
:101C400003F00303134323602369AA889BB243EA8A
:101C5000024323612369EA886FF30F03134323616F
:101C600063692A8962F3090363616368EA7A23F08E
:101C7000FF0313436360236823F4883323602368DE
:101C800023F4815343F0200323602B780BB9002009
:101C9000DFE6D4F8B03043F00203C4F8B030F6E722
:101CA000008004400000C0FFF7B5034608B101B151
:101CB0000AB9042016E000241868470502D4186801
:101CC000C604F9D51D68ED0404F00F000CD51A68A0
:101CD00042F480521A60012004F00F020F2A01D052
:101CE000DA6F1B6C03B0F0BD00F110050F2853F83C
:101CF000255008BF186C0195042A104628BF0420FF
:101D000001340E1801ADB14203D1121AD4D11046DC
:101D1000E2E715F8017B01F8017BF4E770B50F4E9F
:101D20000F4C104D96B0FEF7ABFE01A8FFF752FE28
:101D300001A93046FFF788FE2046FFF7A9FD0422DF
:101D400029463046FFF7B0FF29682046FFF7A8FD77
:101D5000054B00221A6016B070BD00BF00000A409B
:101D600000100D400003FF1FFC02FF1F7FB5124A49
:101D7000936B43F48063936301A8FFF7ABFB0F4AB7
:101D80000F484FF46133019340F20113ADF8143062
:101D9000136C23F4E06343F440731364536C23F433
:101DA000E06343F44073536401A9064AFFF78CFAD9
:101DB00007B05DF804FB00BF0080044000A00440B1
:101DC00000400C401075700007B50B4A0B48D36CEF
:101DD00023F4E06343F48073D3641321012301AA45
:101DE000ADF80430FFF7E2F9054B4FF400229A6496
:101DF00003B05DF804FB00BF00A0044040F00F40BA
:101E000000F00F40024B4FF400225A64704700BFAD
:101E100000F00F40024B4FF400229A64704700BF5D
:101E200000F00F4007B501220DF107010348FFF74D
:101E3000A9FB9DF8070003B05DF804FB00400C40CF
:101E400007B501228DF807000DF107010248FFF7E1
:101E50007FFB03B05DF804FB00400C4070470000BE
:101E600001461022014800F0F6BA00BF0403FF1F2C
:101E700001480021FFF714BD00100D400B4A136804
:101E80004CF24F3101338B4210B501D8136010BDB5
:101E9000074C08480023214613600422FFF704FF83
:101EA00021680548BDE81040FFF7FABCFC02FF1F9F
:101EB0000003FF1F00000A4000100D4007B510236B
:101EC000054900910246014601930448FFF7ECFCE6
:101ED00003B05DF804FB00BF0403FF1F00100D40BA
:101EE0007047000008B5064B4CF22052DA814DF6DF
:101EF0002812DA814FF4E9721A80FFF7F1FF08BD6A
:101F000000200540FFF7AABFFFF7AABFFFF7B0BF49
:101F1000FFF7B4BFFFF7D2BF704700001FB51446EC
:101F20001A46094B1B680546D8684CB1074B00910F
:101F3000CDE9013406492B4600F080F900F054FB4E
:101F4000044B1C46F3E700BF1000FF1F05340000E0
:101F50001234000040340000002301461A4618469F
:101F600000F088BA08B5064B044613B1002100F012
:101F7000DDFA044B1B6803B19847204601F064F872
:101F80002D2500005404FF1F024B0146186800F085
:101F900025B800BF1000FF1F70B50F4E0C4631680A
:101FA000054611B900F0FAF930602146284600F0E4
:101FB000F5F9431C03D14FF0FF34204670BDC41C1B
:101FC00024F00304A042F8D0211A284600F0E6F9D4
:101FD0000130F2D1EFE700BF1403FF1F2DE9F843F2
:101FE000CD1C25F0030508350C2D38BF0C25002D20
:101FF000064601DBA94204D90C2333600020BDE86A
:10200000F883DFF8D48000F069F8D8F800301C4677
:1020100044BB29463046FFF7BFFF431C044658D156
:10202000D8F800402746002F43D1002C4BD023681E
:102030003946304604EB030900F0B0F9814542D13E
:1020400021686D1A29463046FFF7A6FF01303AD0C5
:1020500023682B442360D8F800305A6862BBC8F864
:1020600000700FE02268521B20D40B2A17D9611987
:10207000A342256018BF5960636808BFC8F8001004
:1020800062514B60304600F02FF804F10B00231D25
:1020900020F00700C21A1CBF1B1AA350AFE76268EA
:1020A000A3420CBFC8F800205A60EBE723466468DF
:1020B000AEE73C467F68B6E71A465B68A342FBD1B1
:1020C00000235360DEE70C233360304600F00CF849
:1020D00094E70560D6E700BF1803FF1F014800F032
:1020E000B8B900BF5C04FF1F014800F0B3B900BFDE
:1020F0005C04FF1F002310B50446C0E90033C0E9AB
:102100000433836081814366C2818361194608225A
:102110005C3000F006F90D4B63620D4BA3620D4B72
:10212000E3620D4B23630D4B24629C4206D003F106
:102130006802944202D0D0339C4205D104F1580089
:10214000BDE8104000F084B910BD00BF9D22000022
:10215000BF220000F72200001B2300001C03FF1F0A
:10216000024A0349034800F07BB800BF0400FF1F88
:10217000252D00001400FF1F41680C4B994210B53B
:10218000044601D000F0CEFDA168094B994202D06F
:10219000204600F0C7FDE168064B994204D0204676
:1021A000BDE8104000F0BEBD10BD00BF1C03FF1F06
:1021B0008403FF1FEC03FF1F10B50B4B0B4C0C4AA5
:1021C0001A60204600220421FFF794FF04F1680002
:1021D00001220921FFF78EFF04F1D0000222BDE8A1
:1021E00010401221FFF786BF5404FF1F1C03FF1F7E
:1021F00061210000014800F02CB900BF5E04FF1F00
:10220000014800F027B900BF5E04FF1F10B5044667
:10221000FFF7F0FF236A1BB1BDE81040FFF7F0BFE6
:10222000044B2362044B1B68002BF5D1FFF7C4FF5E
:10223000F2E700BF792100005404FF1F0EB403B57C
:10224000014603AB054853F8042B0068019300F0E6
:1022500045FA02B05DF804EB03B070471000FF1FB1
:102260002DE9F8430746884614460026D4E901952F
:10227000B9F1010905D52468002CF7D13046BDE835
:10228000F883AB89012B07D9B5F90E30013303D0A0
:1022900029463846C04706436835E9E710B50C467D
:1022A000B1F90E1000F068F80028ABBF636DA38988
:1022B0001B1823F48053ACBF6365A38110BD2DE9C7
:1022C000F0411F468B89DB0505460C46164605D5B1
:1022D000B1F90E100223002200F03CF8A389B4F9F2
:1022E0000E1023F48053A38132463B462846BDE8B6
:1022F000F04100F063B810B50C46B1F90E1000F0D3
:1023000029F8431CA38915BF606523F4805343F467
:102310008053A38118BFA38110BDB1F90E1000F046
:1023200009B802440346934200D1704703F8011BE9
:10233000F9E7000038B5064D0023044608462B6037
:10234000FEF790FB431C02D12B6803B1236038BD1C
:102350005804FF1F38B5074D0446084611460022B1
:102360002A601A46FEF783FB431C02D12B6803B197
:10237000236038BD5804FF1F38B5074D0446084692
:10238000114600222A601A46FEF772FB431C02D156
:102390002B6803B1236038BD5804FF1F38B5064DC4
:1023A0000023044608462B6000F040FE431C02D187
:1023B0002B6803B1236038BD5804FF1F38B5074DA3
:1023C00004460846114600222A601A46FEF751FBD1
:1023D000431C02D12B6803B1236038BD5804FF1F92
:1023E00070B50D4D0D4C641BA4100026A64209D1FA
:1023F0000B4D0C4C01F0ECF8641BA4100026A64217
:1024000005D170BD55F8043B98470136EEE755F805
:10241000043B98470136F2E7F0350000F035000044
:10242000F0350000F435000038B5074D074C641B4B
:10243000A4101CB9BDE8384001F0D0B8013C55F8F3
:1024400024309847F5E700BFF4350000F835000068
:102450007047704770470A44914200F1FF3300D142
:10246000704710B511F8014B03F8014F9142F9D1B3
:1024700010BD00002DE9F843274D07462868914616
:102480000E469846FFF7E5FF244A14683CB9244BF2
:102490001360244A12B11268C3F88820204C636884
:1024A0001F2B06DD2868FFF7D5FF4FF0FF30BDE892
:1024B000F8832FB3D4F8880068B91B4B002BF1D0F8
:1024C0004FF48470FFF760FD0028EBD00023C0E9D3
:1024D0004033C4F88800636840F8239001229A4092
:1024E00000EB8301D0F800311343C0F80031022F14
:1024F000C1F8808002BFD0F804311343C0F8043122
:10250000636828685A1C0233626044F82360FFF74E
:10251000A1FF0020CBE700BF6000FF1FEC04FF1FFE
:102520006004FF1F00000000891F00002DE9F74F25
:10253000DFF8AC800190D8F80000DFF8A8900F46D3
:10254000FFF787FFD9F8005035B9D8F8000003B07D
:10255000BDE8F04FFFF77EBF6C68D5F888B0661E07
:10256000013405EB84040BF1800A002EEDDB4FB142
:10257000BBF1000F02D1013E043CF6E75AF82620D9
:10258000BA42F8D1696822680139B14216BF002306
:102590006E602360002AEED06B680093BBF1000FE1
:1025A00007D0DBF80011012303FA06FC1CEA010F37
:1025B00009D190476968009BD9F800209942C1D1A0
:1025C0009542D8D0BEE7DBF804015BF826101CEA80
:1025D000000F02D101989047ECE708469047E9E7E1
:1025E0006000FF1FEC04FF1F08B5062000F07EFC12
:1025F000012000F029FD000038B50546002941D032
:1026000051F8043C0C1F002BB8BFE418FFF766FD1F
:102610001D4A136833B9636014602846BDE838402A
:10262000FFF762BDA34208D9206821188B4201BF81
:1026300019685B6809182160EDE71A465B680BB101
:10264000A342FAD911685018A0420BD12068014466
:10265000501883421160E0D118685B6853600844E9
:102660001060DAE702D90C232B60D6E72068211826
:102670008B4204BF19685B68636004BF091821605E
:102680005460CAE738BD00BF1803FF1F9368013BC1
:10269000002B10B4936007DA9469A34201DB0A2986
:1026A00002D110BC00F066BB1368581C1060197092
:1026B000084610BC7047F8B506460F461446D518B4
:1026C000AC4201D1002007E014F8011B3A46304625
:1026D000FFF7DCFF431CF3D1F8BD00002DE9F04FFC
:1026E0000D469DB014469846064618B1036A0BB9CC
:1026F000FFF78CFD6B6ED90705D4AB899A0502D420
:10270000A86DFFF7A6FEAB891B0701D52B699BB906
:102710002946304600F06CFB70B16B6EDC0704D5C7
:102720004FF0FF301DB0BDE8F08FAB899805F7D4AE
:10273000A86DFFF78FFEF3E70023099320238DF8A0
:102740002930CDF80C803023DFF8AC818DF82A30A9
:102750004FF0010923469A4613F8012B0AB1252AA6
:10276000F9D1BAEB040B0BD05B4622462946304622
:10277000FFF7A1FF013000F0A780099A5A4409929F
:102780009AF80030002B00F09F8000234FF0FF32BA
:10279000CDE905230AF1010A049307938DF853301C
:1027A0001A935446052214F8011B5348FDF738FFCD
:1027B000049AD8B9D10644BF20238DF853301307AB
:1027C00044BF2B238DF853309AF800302A2B15D0B4
:1027D000079A544600204FF00A0C214611F8013B9D
:1027E000303B092B4BD9B0B1079214E0A0EB0803A2
:1027F00009FA03F313430493A246D2E7039B191D7E
:102800001B680391002BBBBF5B4242F0020207939F
:102810000793B8BF049223782E2B0AD163782A2B12
:1028200032D1039B1A1D1B68039243EAE3730234FF
:102830000593DFF8C8A0217803225046FDF7F0FE8B
:1028400038B1049BA0EB0A004022824013430134BC
:10285000049314F8011B2A488DF828100622FDF76E
:10286000DFFE00283FD0274B1BBB039B073323F021
:10287000070308330393099B3B4409936AE70CFB66
:1028800002320C460120A8E70023013405931946C3
:102890004FF00A0C204610F8012B303A092A03D9D0
:1028A000002BC6D00591C4E70CFB0121044601238F
:1028B000F0E703AB00932A46134B04A93046AFF36D
:1028C00000800746781CD6D16B6ED90705D4AB893A
:1028D0009A0502D4A86DFFF7BDFDAB895B063FF5F5
:1028E0001FAF09981EE703AB00932A46064B04A9C5
:1028F000304600F079F8E4E7413400004734000046
:102900004B34000000000000B72600002DE9F0471E
:10291000164698468A680B69DDF820909342B8BF46
:102920001346336091F8432007460C460AB1013341
:1029300033602368990642BF3368023333602568E9
:1029400015F0060506D104F1190AE36832689B1AEE
:10295000AB4226DC94F843302268003B18BF0123C9
:1029600092062BD404F1430241463846C847013051
:102970001ED02368226903F00603042B02BFE5681A
:102980003368ED1AA3680CBF25EAE575002593426C
:10299000C4BF9B1AED1800261A34B5421AD1002084
:1029A00008E00123524641463846C847013003D16A
:1029B0004FF0FF30BDE8F0870135C6E7E1185A1C3B
:1029C000302081F84300224494F8451082F84310E7
:1029D0000233C7E70123224641463846C847013043
:1029E000E6D00136D9E700002DE9FF470F7E0C9EA7
:1029F000782F914680460C469A4601F1430207D84B
:102A0000622F0AD8002F00F0D180582F00F0B88034
:102A100004F1420684F842703AE0A7F16303152BF3
:102A2000F6D801A151F823F0812A0000952A000070
:102A3000112A0000112A0000112A0000112A0000AA
:102A4000952A0000112A0000112A0000112A000016
:102A5000112A0000932B0000BF2A00004D2B00001C
:102A6000112A0000112A0000B52B0000112A0000D5
:102A7000BF2A0000112A0000112A0000552B000077
:102A800033681A1D1B68326004F1420684F8423034
:102A900001239CE033682068191D3160060601D5CA
:102AA0001D6803E04506FBD5B3F90050002D03DA9D
:102AB0002D236D4284F8433058480A2311E02168E1
:102AC0003368080653F8045B02D4490648BFADB228
:102AD0006F2F5248336014BF0A230823002184F863
:102AE00043106668A660002E05DB21682E4321F0A6
:102AF000040121604BD01646B5FBF3F103FB1157DF
:102B0000C75D06F8017D2F46BB420D46F4D9082B60
:102B10000BD12368DF0708D5236961689942DEBFBE
:102B2000302306F8013C06F1FF36921B2261CDF8F6
:102B300000A04B4603AA21464046FFF7E7FE0130BE
:102B40004AD14FF0FF3004B0BDE8F087236843F06E
:102B5000200323603248782784F845702368316861
:102B60001F0651F8045B02D45F0648BFADB2316066
:102B7000D90744BF43F0200323601DB11023ADE704
:102B80002648E9E7236823F020032360F6E716468A
:102B9000BDE7336825686169181D30602E061B6823
:102BA00001D5196002E06806FBD519800023236176
:102BB0001646BCE733681A1D32601E686268002141
:102BC0003046FDF72DFD08B1801B6060636823610E
:102BD000002384F84330AAE7236932464946404639
:102BE000D0470130ADD023689B0713D4E068039B26
:102BF0009842B8BF1846A6E70123324649464046E8
:102C0000D04701309DD00135E36803995B1AAB4290
:102C1000F2DCEBE7002504F11906F5E75234000079
:102C200063340000B1F90C20F8B5160705460C46D0
:102C300054D44B68002B02DC0B6C002B48DDE66A99
:102C4000002E45D0002312F480522F68216A2B6099
:102C500030D0626DA389590705D56368D21A636BBA
:102C60000BB1236CD21A0023E66A216A2846B047CA
:102C7000431CA38906D129681D292BD8284ACA409C
:102C8000D60727D500226260D9042269226004D5C4
:102C9000421C01D12B6803B96065616B2F60B9B12B
:102CA00004F14403994202D02846FFF7A5FC002313
:102CB00063630DE001232846B0470246501CC9D18A
:102CC0002B68002BC6D01D2B01D0162B1DD12F60D9
:102CD000002021E043F040031BB21AE00F69002FEF
:102CE000F6D093070E6808BF4B690F6018BF00232A
:102CF000F61B8B60002EEBDD216AD4F828C033462A
:102D00003A462846E047002807DCB4F90C3043F087
:102D10004003A3814FF0FF30F8BD0744361AE9E7BE
:102D20000100402038B50B6905460C4613B9002553
:102D3000284638BD18B1036A0BB9FFF767FAB4F932
:102D40000C30002BF3D0626ED00704D4990502D466
:102D5000A06DFFF77EFB28462146FFF763FF636EF9
:102D6000DA070546E4D4A3899B05E1D4A06DFFF7FB
:102D700071FBDDE7F8B50E461446054618B1036A47
:102D80000BB9FFF743FAA369A360A3891A0701D51A
:102D9000236943B92146284600F02AF818B14FF0BC
:102DA000FF373846F8BD23682269981A6369F6B27E
:102DB0008342374605DC21462846FFF7B3FF00284B
:102DC000EDD1A368013BA36023685A1C22601E70EA
:102DD0006269431C9A4204D0A389DB07E1D50A2E1D
:102DE000DFD121462846FFF79DFF0028D9D0D6E73E
:102DF00038B5294B054618680C4618B1036A0BB95B
:102E0000FFF704FAB4F90C30190722D4DA0607D414
:102E100009222A6043F04003A3814FF0FF3033E0E2
:102E2000580712D5616B41B104F14403994202D0B5
:102E30002846FFF7E1FB00236363A38923F0240303
:102E4000A3810023636023692360A38943F00803FF
:102E5000A38123694BB9A38903F42073B3F5007FE1
:102E600003D02146284600F083F8B4F90C3013F063
:102E700001020AD00022A26062695242A261226964
:102E800042B913F08000C5D138BD990758BF6269B7
:102E9000A260F4E70020F7E71000FF1F1F2938B5F4
:102EA00005460C4604D9162303604FF0FF3038BDA9
:102EB000C26B12B152F821304BB9284600F030F8FD
:102EC000224601462846BDE8384000F017B8012BDD
:102ED0000AD0591C03D1162303600120E7E7002123
:102EE00042F82410204698470020E0E7024B0146B4
:102EF0001868FFF7D3BF00BF1000FF1F38B5074D9C
:102F000000230446084611462B60FDF7AFFD431C25
:102F100002D12B6803B1236038BD00BF5804FF1FE6
:102F2000FDF7A2BD70B50C46B1F90E10002996B0A0
:102F300015461E460DDAA38913F0800F4FF00001ED
:102F400014BF40234FF48063002031602B6016B023
:102F500070BD6A4600F048F80028ECDB019901F4E6
:102F60007041A1F50053594259414FF48063EBE79A
:102F70008B89F7B59D0706460C4607D504F1470334
:102F8000236023610123636103B0F0BD01AB6A4696
:102F9000FFF7C8FF009F054639463046FFF71EF889
:102FA00048B9B4F90C309A05EED423F0030343F08A
:102FB0000203A381E2E7A389206043F08003A38199
:102FC000019BC4E904075BB1B4F90E10304600F070
:102FD0001DF828B1A38923F0030343F00103A38163
:102FE000A3891D43A581CFE738B5074D00230446CB
:102FF000084611462B60FDF736FD431C02D12B68B5
:1030000003B1236038BD00BF5804FF1F38B5064D1B
:103010000023044608462B60FDF727FD431C02D120
:103020002B6803B1236038BD5804FF1F044A0549CB
:103030001368002B08BF0B461844106018467047F1
:10304000F004FF1F00000020FEE700BF2B7E1516D6
:1030500028AED2A6ABF7158809CF4F3C00696E7336
:1030600074616E6365203C2041525241595F53495F
:103070005A4528735F6473706942617365732900F0
:103080002E2E2F2E2F68616C2F6368697077686908
:103090007370657265722D66772D65787472612F15
:1030A0006B3832662F66736C5F647370692E6300D1
:1030B000675F6473706948616E646C655B305D0066
:1030C000675F6473706948616E646C655B315D0055
:1030D000675F6473706948616E646C655B325D0044
:1030E000696E7374616E6365203C20415252415990
:1030F0005F53495A4528735F65646D61426173652A
:103100007329002E2E2F2E2F68616C2F6368697033
:103110007768697370657265722D66772D6578744E
:1031200072612F6B3832662F66736C5F65646D61F8
:103130002E63006368616E6E656C203C2046534CC4
:103140005F464541545552455F45444D415F4D4FA3
:1031500044554C455F4348414E4E454C00746364B2
:1031600020213D204E554C4C00282875696E743343
:10317000325F7429746364202620307831465529E3
:10318000203D3D20300068616E646C6520213D204B
:103190004E554C4C00696E7374616E6365203C2023
:1031A00041525241595F53495A4528735F677069CC
:1031B0006F426173657329002E2E2F2E2F68616C6C
:1031C0002F636869707768697370657265722D66C0
:1031D000772D65787472612F6B3832662F66736C49
:1031E0005F6770696F2E6300636F6E666967002E9C
:1031F0002E2F2E2F68616C2F636869707768697352
:1032000070657265722D66772D65787472612F6BAB
:103210003832662F66736C5F6C70756172742E63E2
:1032200000696E7374616E6365203C2041525241A7
:10323000595F53495A4528735F6C707561727442C7
:10324000617365732900636F6E6669672D3E626105
:103250007564526174655F4270730046534C5F46FB
:103260004541545552455F4C50554152545F464973
:10327000464F5F53495A456E286261736529203E67
:103280003D20636F6E6669672D3E74784669666F90
:1032900057617465726D61726B0046534C5F4645B1
:1032A00041545552455F4C50554152545F46494632
:1032B0004F5F53495A456E286261736529203E3D30
:1032C00020636F6E6669672D3E72784669666F5738
:1032D000617465726D61726B00696E7374616E63A7
:1032E00065203C2041525241595F53495A45287349
:1032F0005F736169426173657329002E2E2F2E2F33
:1033000068616C2F6368697077686973706572654E
:10331000722D66772D65787472612F6B3832662F47
:1033200066736C5F7361692E6300735F73616948D4
:10333000616E646C655B305D5B305D00735F736113
:103340006948616E646C655B305D5B315D0068612E
:103350006E646C65002E2E2F2E2F68616C2F6368B3
:1033600069707768697370657265722D66772D650F
:10337000787472612F6B3832662F66736C5F73647A
:1033800068632E630068616E646C652D3E636F6DCB
:103390006D616E640068616E646C652D3E6461747D
:1033A0006100735F7364686348616E646C655B3071
:1033B0005D00696E7374616E6365203C20415252FA
:1033C00041595F53495A4528735F74726E67426171
:1033D00073657329002E2E2F2E2F68616C2F636862
:1033E00069707768697370657265722D66772D658F
:1033F000787472612F6B3832662F66736C5F7472EB
:103400006E672E63002C2066756E6374696F6E3A6A
:103410002000617373657274696F6E2022257322B8
:10342000206661696C65643A2066696C65202225B6
:1034300073222C206C696E65202564257325730A20
:1034400000232D302B2000686C4C006566674546D4
:10345000470030313233343536373839414243440E
:10346000454600303132333435363738396162639E
:1034700064656600107570000000A0000000000088
:1034800000000000535049325F447269766572490A
:10349000525148616E646C657200535049315F440B
:1034A000726976657249525148616E646C6572004A
:1034B000535049305F447269766572495251486190
:1034C0006E646C65720045444D415F48616E646C8A
:1034D000654952510045444D415F476574436861F9
:1034E0006E6E656C537461747573466C61677300BE
:1034F0004750494F5F50696E496E6974004C505592
:103500004152545F52656164426C6F636B696E67D0
:10351000004C50554152545F5772697465426C6F4C
:10352000636B696E67004C50554152545F47657438
:1035300044656661756C74436F6E666967004C50D4
:10354000554152545F496E6974004C505541525474
:103550005F476574496E7374616E636500000000B7
:1035600004002C1005002C1006002C1007002C1055
:1035700016002C10493253305F52785F44726976DE
:10358000657249525148616E646C657200493253EC
:10359000305F54785F447269766572495251486170
:1035A0006E646C657200534448435F44726976658B
:1035B0007249525148616E646C65720074726E6734
:1035C0005F476574496E7374616E63650000000047
:1035D000F8B500BFF8BC08BC9E467047F8B500BF00
:0835E000F8BC08BC9E467047D0
:0835E80028CEFF7F0100000066
:0435F000E5060000EC
:0435F400C10600000C
:1035F8000000400100000000030000001C03FF1F42
:103608001400FF1F000000001C03FF1F8403FF1F9E
:10361800EC03FF1F00000000000000000000000095
:103628000000000000000000000000000000000092
:103638000000000000000000000000000000000082
:103648000000000000000000000000000000000072
:043658005D04FF1FEF
:040000030000048174
:00000001FF
